S01B0000726F746172795F656E636F6465725F746573742E737265630A
S11300000C942A000C94F8010C9457020C944700A9
S11300100C9447000C9447000C9447000C94470040
S11300200C9447000C9447000C9447000C94470030
S11300300C9447000C94B6020C9447000C944700AF
S11300400C9447000C9447000C9447000C94470010
S11300500C94470011241FBECFE5D8E0DEBFCDBF0E
S113006010E0A0E6B0E0E0EFF9E002C005900D92E8
S1130070A63DB107D9F720E0A6EDB0E001C01D927E
S1130080AE3FB207E1F70E94C0020C94F6040C9450
S113009000002AB128692AB920B5266820BDDC01F0
S11300A0CB01880F991FAA1FBB1F880F991FAA1F76
S11300B0BB1F9C01AD01220F331F441F551F220F8C
S11300C0331F441F551F60E074E284EF90E00E94E8
S11300D0D4048FEF820F89B9DA01C9010197A1090C
S11300E0B109892F9A2FAB2FBB2780BD08958CB9F6
S11300F05D9BFECF0895CF93DF93EC018881882325
S113010031F021960E94770089918111FBCFDF9114
S1130110CF9108950F931F93CF93DF93C0E0D0E066
S113012011E000E0C230D10570F0812FC430D10558
S113013009F0802F811107C0212FCE018D7F0897F0
S113014009F0202F21110E94EA02CE0181709078DB
S1130150992324F401978E6F9F6F01960197C9F438
S11301602AE939E949E15FE3609160007091610037
S113017080916200909163000E947C036093600010
S11301807093610080936200909363000E94100357
S113019018C02AE939E949E95EE360916000709189
S11301A0610080916200909163000E947C036093DF
S11301B060007093610080936200909363000E94DA
S11301C010032FEF85EA9EE0215080409040E1F734
S11301D000C000002196CC30D10509F0A3CF80E007
S11301E090E0A0E0B0E48093600090936100A0935D
S11301F06200B0936300BC01CD010E9410032FEF95
S113020081EE94E0215080409040E1F700C000006E
S11302100E940203C0E0D0E0CE018D7F009729F058
S11302208430910511F0099711F40E94EA02CE017D
S113023081709078992324F401978E6F9F6F0196B3
S11302400197C9F42AE939E949E15FE36091600063
S11302507091610080916200909163000E947C0320
S113026060936000709361008093620090936300D8
S11302700E94100318C02AE939E949E95EE3609154
S113028060007091610080916200909163000E940F
S11302907C0360936000709361008093620090938C
S11302A063000E9410032FEF85EA9EE021508040F6
S11302B09040E1F700C000002196CC30D10509F050
S11302C0ABCF80E090E0A0E0B0E480936000909336
S11302D06100A0936200B0936300BC01CD010E9451
S11302E010032FEF81EE94E0215080409040E1F71D
S11302F000C000000E940203C0E0D0E011E000E072
S11303002097C1F0C330D105A9F0CE01212FC5300B
S1130310D10509F0202F21110DC0412F9C01275038
S113032031092230310508F0402F411103C00A97EA
S1130330029710F40E94EA02CE018170907899230A
S113034024F401978E6F9F6F01960197C9F42AE9EF
S113035039E949E15FE36091600070916100809147
S11303606200909163000E947C036093600070932C
S1130370610080936200909363000E94100318C090
S11303802AE939E949E95EE360916000709161000E
S113039080916200909163000E947C0360936000EE
S11303A07093610080936200909363000E94100335
S11303B02FEF85EA9EE0215080409040E1F700C095
S11303C000002196CC30D10509F09ACF0E94FB029F
S11303D02FEF8BE792E9215080409040E1F700C075
S11303E000000E94FE02DF91CF911F910F910895AA
S11303F01F920F920FB60F9211242F933F934F9396
S11304005F936F937F938F939F93AF93BF93EF9378
S1130410FF9393B380B3917082FB222720F981E08C
S11304208227981306C083B390B394708170981395
S113043017C06091FA007091FB008091FC009091CC
S1130440FD0020E030E040E85FE30E947B0360931E
S1130450FA007093FB008093FC009093FD0016C09B
S11304606091FA007091FB008091FC009091FD0076
S113047020E030E040E85FE30E947C036093FA00F0
S11304807093FB008093FC009093FD00FF91EF912B
S1130490BF91AF919F918F917F916F915F914F9198
S11304A03F912F910F900FBE0F901F9018951F92A0
S11304B00F920FB60F9211242F933F934F935F9394
S11304C06F937F938F939F93AF93BF93EF93FF9318
S11304D096B380B3917083FB222720F981E08227B1
S11304E0981306C086B390B398708170981317C0A0
S11304F06091E2007091E3008091E4009091E50046
S113050020E030E040E85FE30E947C036093E20077
S11305107093E3008093E4009093E50016C060912B
S1130520E2007091E3008091E4009091E50020E006
S113053030E040E85FE30E947B036093E200709345
S1130540E3008093E4009093E500FF91EF91BF9165
S1130550AF919F918F917F916F915F914F913F9157
S11305602F910F900FBE0F901F9018951F920F920E
S11305700FB60F9211240F900FBE0F901F90189575
S1130580D19AD99AA0988FEF87BB789460E076E9E6
S113059080E090E00E94490080EC8BBF85E085BF3D
S11305A02FEF87EA91E6215080409040E1F700C0A8
S11305B000006091600070916100809162009091F0
S11305C063000E94100388EB90E00E947B000E946D
S11305D08A00FFCFD9982FEF89E698E12150804017
S11305E09040E1F700C0000082E08BBB089588B31F
S11305F0837F88BB089581E088BB089588B38C7F8E
S113060088BB089582E088BB2FEF86E791E02150F4
S113061080409040E1F700C000000E94FE0208956F
S1130620CF92DF92EF92FF92CF9320E030E04AEE38
S113063052E40E9467046B017C012091FA0030911E
S1130640FB004091FC005091FD000E9462041816CA
S1130650F4F42091FA003091FB004091FC00509199
S1130660FD00C701B6010E946204181684F4C4E0B8
S1130670C8BB2091FA003091FB004091FC005091DE
S1130680FD00C701B6010E94620418168CF3209184
S1130690FA003091FB004091FC005091FD00C7012D
S11306A0B6010E94E8038823F4F42091FA00309103
S11306B0FB004091FC005091FD00C701B6010E946F
S11306C0E803882384F4C8E0C8BB2091FA00309181
S11306D0FB004091FC005091FD00C701B6010E944F
S11306E0E80388238CF30E94F702CF91FF90EF90E8
S11306F0DF90CF9008955058BB27AA270E949303F8
S11307000C9428040E941A0438F00E94210420F05A
S113071039F49F3F19F426F40C9417040EF4E09571
S1130720E7FB0C941104E92F0E94390458F3BA171B
S1130730620773078407950720F079F4A6F50C94F3
S11307405B040EF4E0950B2EBA2FA02D0B01B9011A
S113075090010C01CA01A0011124FF27591B99F033
S1130760593F50F4503E68F11A16F040A22F232F3F
S1130770342F4427585FF3CF469537952795A7958F
S1130780F0405395C9F77EF41F16BA0B620B730B36
S1130790840BBAF09150A1F0FF0FBB1F661F771FA7
S11307A0881FC2F70EC0BA0F621F731F841F48F45C
S11307B0879577956795B795F7959E3F08F0B0CFE5
S11307C09395880F08F09927EE0F979587950895CC
S11307D00E94ED0308F481E00895990F0008550F75
S11307E0AA0BE0E8FEEF16161706E807F907C0F0B3
S11307F012161306E407F50798F0621B730B840BBB
S1130800950B39F40A2661F0232B242B252B21F494
S113081008950A2609F4A140A6958FEF811D811D34
S1130820089597F99F6780E870E060E008959FEF6E
S113083080EC089500240A94161617061806090673
S1130840089500240A941216130614060506089542
S1130850092E0394000C11F4882352F0BB0F40F4CA
S1130860BF2B11F460FF04C06F5F7F4F8F4F9F4F0A
S1130870089557FD9058440F551F59F05F3F71F08C
S11308804795880F97FB991F61F09F3F79F08795F3
S11308900895121613061406551FF2CF4695F1DF7C
S11308A008C0161617061806991FF1CF869571050C
S11308B0610508940895E894BB2766277727CB0140
S11308C097F908950E94ED0308F48FEF08950E94AC
S11308D07A040C9428040E941A0438F00E9421041B
S11308E020F0952311F00C9411040C941704112496
S11308F00C945C040E94390470F3959FC1F3950F26
S113090050E0551F629FF001729FBB27F00DB11D8F
S1130910639FAA27F00DB11DAA1F649F6627B00D1F
S1130920A11D661F829F2227B00DA11D621F739F08
S1130930B00DA11D621F839FA00D611D221F749F16
S11309403327A00D611D231F849F600D211D822F5D
S1130950762F6A2F11249F5750409AF0F1F0882384
S11309604AF0EE0FFF1FBB1F661F771F881F9150B1
S11309705040A9F79E3F510580F00C9411040C944B
S11309805C045F3FE4F3983ED4F3869577956795CE
S1130990B795F795E7959F5FC1F7FE2B880F911DDB
S11309A09695879597F90895A1E21A2EAA1BBB1B69
S11309B0FD010DC0AA1FBB1FEE1FFF1FA217B30727
S11309C0E407F50720F0A21BB30BE40BF50B661F3D
S11309D0771F881F991F1A9469F760957095809501
S11309E090959B01AC01BD01CF010895F894FFCF10
S11309F000000040506170657220697320736C6957
S1130A0064656420666F72776172640A00412063D2
S1130A106861726163746572206973207072696EB3
S1130A207465640A00506170657220697320736C88
S1130A306964656420666F72776172642074776F8D
S1130A402074696D65730A0043616C696272617434
S1130A50696E6720796F75722073797374656D2E72
S1090A602E2E2E0A0000F8
S9030000FC
